{
  "address": "0x8Cec9277d761f947e29EBeACc4035DDCDB10c2BD",
  "abi": [
    {
      "inputs": [
        {
          "internalType": "address",
          "name": "_tokenAddr",
          "type": "address"
        }
      ],
      "stateMutability": "nonpayable",
      "type": "constructor"
    },
    {
      "inputs": [],
      "name": "DuplicateVerification",
      "type": "error"
    },
    {
      "inputs": [],
      "name": "EnforcedPause",
      "type": "error"
    },
    {
      "inputs": [],
      "name": "ExpectedPause",
      "type": "error"
    },
    {
      "inputs": [],
      "name": "InvalidAddress",
      "type": "error"
    },
    {
      "inputs": [
        {
          "internalType": "address",
          "name": "owner",
          "type": "address"
        }
      ],
      "name": "OwnableInvalidOwner",
      "type": "error"
    },
    {
      "inputs": [
        {
          "internalType": "address",
          "name": "account",
          "type": "address"
        }
      ],
      "name": "OwnableUnauthorizedAccount",
      "type": "error"
    },
    {
      "inputs": [],
      "name": "ReentrancyGuardReentrantCall",
      "type": "error"
    },
    {
      "inputs": [],
      "name": "UnauthorizedAdapter",
      "type": "error"
    },
    {
      "anonymous": false,
      "inputs": [
        {
          "indexed": true,
          "internalType": "address",
          "name": "adapter",
          "type": "address"
        },
        {
          "indexed": false,
          "internalType": "uint8",
          "name": "sourceId",
          "type": "uint8"
        }
      ],
      "name": "AdapterAdded",
      "type": "event"
    },
    {
      "anonymous": false,
      "inputs": [
        {
          "indexed": true,
          "internalType": "address",
          "name": "adapter",
          "type": "address"
        }
      ],
      "name": "AdapterRemoved",
      "type": "event"
    },
    {
      "anonymous": false,
      "inputs": [
        {
          "indexed": true,
          "internalType": "address",
          "name": "previousOwner",
          "type": "address"
        },
        {
          "indexed": true,
          "internalType": "address",
          "name": "newOwner",
          "type": "address"
        }
      ],
      "name": "OwnershipTransferred",
      "type": "event"
    },
    {
      "anonymous": false,
      "inputs": [
        {
          "indexed": false,
          "internalType": "address",
          "name": "account",
          "type": "address"
        }
      ],
      "name": "Paused",
      "type": "event"
    },
    {
      "anonymous": false,
      "inputs": [
        {
          "indexed": true,
          "internalType": "address",
          "name": "user",
          "type": "address"
        },
        {
          "indexed": false,
          "internalType": "uint256",
          "name": "amount",
          "type": "uint256"
        }
      ],
      "name": "TokensRevoked",
      "type": "event"
    },
    {
      "anonymous": false,
      "inputs": [
        {
          "indexed": false,
          "internalType": "address",
          "name": "account",
          "type": "address"
        }
      ],
      "name": "Unpaused",
      "type": "event"
    },
    {
      "anonymous": false,
      "inputs": [
        {
          "indexed": true,
          "internalType": "address",
          "name": "user",
          "type": "address"
        },
        {
          "indexed": true,
          "internalType": "uint8",
          "name": "source",
          "type": "uint8"
        },
        {
          "indexed": false,
          "internalType": "bytes32",
          "name": "uniqueId",
          "type": "bytes32"
        },
        {
          "indexed": false,
          "internalType": "uint256",
          "name": "timestamp",
          "type": "uint256"
        }
      ],
      "name": "VerificationRegistered",
      "type": "event"
    },
    {
      "inputs": [],
      "name": "TOKEN_REWARD",
      "outputs": [
        {
          "internalType": "uint256",
          "name": "",
          "type": "uint256"
        }
      ],
      "stateMutability": "view",
      "type": "function"
    },
    {
      "inputs": [
        {
          "internalType": "address",
          "name": "",
          "type": "address"
        }
      ],
      "name": "adapterToSource",
      "outputs": [
        {
          "internalType": "uint8",
          "name": "",
          "type": "uint8"
        }
      ],
      "stateMutability": "view",
      "type": "function"
    },
    {
      "inputs": [
        {
          "internalType": "address",
          "name": "adapter",
          "type": "address"
        },
        {
          "internalType": "uint8",
          "name": "sourceId",
          "type": "uint8"
        }
      ],
      "name": "addAdapter",
      "outputs": [],
      "stateMutability": "nonpayable",
      "type": "function"
    },
    {
      "inputs": [
        {
          "internalType": "address",
          "name": "_address",
          "type": "address"
        }
      ],
      "name": "getTrustScore",
      "outputs": [
        {
          "internalType": "uint256",
          "name": "",
          "type": "uint256"
        }
      ],
      "stateMutability": "view",
      "type": "function"
    },
    {
      "inputs": [
        {
          "internalType": "address",
          "name": "user",
          "type": "address"
        }
      ],
      "name": "getVerificationCount",
      "outputs": [
        {
          "internalType": "uint256",
          "name": "",
          "type": "uint256"
        }
      ],
      "stateMutability": "view",
      "type": "function"
    },
    {
      "inputs": [
        {
          "internalType": "address",
          "name": "",
          "type": "address"
        }
      ],
      "name": "isAdapter",
      "outputs": [
        {
          "internalType": "bool",
          "name": "",
          "type": "bool"
        }
      ],
      "stateMutability": "view",
      "type": "function"
    },
    {
      "inputs": [
        {
          "internalType": "address",
          "name": "_address",
          "type": "address"
        }
      ],
      "name": "isVerifiedHuman",
      "outputs": [
        {
          "internalType": "bool",
          "name": "",
          "type": "bool"
        }
      ],
      "stateMutability": "view",
      "type": "function"
    },
    {
      "inputs": [],
      "name": "owner",
      "outputs": [
        {
          "internalType": "address",
          "name": "",
          "type": "address"
        }
      ],
      "stateMutability": "view",
      "type": "function"
    },
    {
      "inputs": [],
      "name": "pause",
      "outputs": [],
      "stateMutability": "nonpayable",
      "type": "function"
    },
    {
      "inputs": [],
      "name": "paused",
      "outputs": [
        {
          "internalType": "bool",
          "name": "",
          "type": "bool"
        }
      ],
      "stateMutability": "view",
      "type": "function"
    },
    {
      "inputs": [
        {
          "internalType": "address",
          "name": "user",
          "type": "address"
        },
        {
          "internalType": "uint8",
          "name": "source",
          "type": "uint8"
        },
        {
          "internalType": "bytes32",
          "name": "uniqueId",
          "type": "bytes32"
        },
        {
          "internalType": "bytes",
          "name": "",
          "type": "bytes"
        }
      ],
      "name": "registerVerification",
      "outputs": [],
      "stateMutability": "nonpayable",
      "type": "function"
    },
    {
      "inputs": [
        {
          "internalType": "address",
          "name": "adapter",
          "type": "address"
        }
      ],
      "name": "removeAdapter",
      "outputs": [],
      "stateMutability": "nonpayable",
      "type": "function"
    },
    {
      "inputs": [],
      "name": "renounceOwnership",
      "outputs": [],
      "stateMutability": "nonpayable",
      "type": "function"
    },
    {
      "inputs": [
        {
          "internalType": "address",
          "name": "newOwner",
          "type": "address"
        }
      ],
      "name": "transferOwnership",
      "outputs": [],
      "stateMutability": "nonpayable",
      "type": "function"
    },
    {
      "inputs": [],
      "name": "unpause",
      "outputs": [],
      "stateMutability": "nonpayable",
      "type": "function"
    },
    {
      "inputs": [
        {
          "internalType": "bytes32",
          "name": "",
          "type": "bytes32"
        }
      ],
      "name": "usedUniqueIds",
      "outputs": [
        {
          "internalType": "bool",
          "name": "",
          "type": "bool"
        }
      ],
      "stateMutability": "view",
      "type": "function"
    },
    {
      "inputs": [
        {
          "internalType": "address",
          "name": "",
          "type": "address"
        },
        {
          "internalType": "uint256",
          "name": "",
          "type": "uint256"
        }
      ],
      "name": "userVerifications",
      "outputs": [
        {
          "internalType": "uint8",
          "name": "source",
          "type": "uint8"
        },
        {
          "internalType": "uint256",
          "name": "timestamp",
          "type": "uint256"
        },
        {
          "internalType": "bytes32",
          "name": "uniqueId",
          "type": "bytes32"
        }
      ],
      "stateMutability": "view",
      "type": "function"
    },
    {
      "inputs": [],
      "name": "verificationToken",
      "outputs": [
        {
          "internalType": "contract IERC20",
          "name": "",
          "type": "address"
        }
      ],
      "stateMutability": "view",
      "type": "function"
    },
    {
      "inputs": [
        {
          "internalType": "uint256",
          "name": "amount",
          "type": "uint256"
        }
      ],
      "name": "withdrawTokens",
      "outputs": [],
      "stateMutability": "nonpayable",
      "type": "function"
    }
  ],
  "transactionHash": "0x0623d71fdf34a300390a7954836d8af269977a1872a15c28d4efb40d3115368b",
  "args": [
    "0x9f12107874B1ED8B10AED87e19E4BDf5ea17a45B"
  ],
  "numDeployments": 1,
  "solcInputHash": "a9ed03014517cbcb5ec8d0d927d0b812",
  "bytecode": "0x60a060405234801561001057600080fd5b50604051610e35380380610e3583398101604081905261002f916100f5565b338061005557604051631e4fbdf760e01b81526000600482015260240160405180910390fd5b61005e816100a5565b50600180556002805460ff191690556001600160a01b0381166100945760405163e6c4247b60e01b815260040160405180910390fd5b6001600160a01b0316608052610125565b600080546001600160a01b038381166001600160a01b0319831681178455604051919092169283917f8be0079c531659141344cd1fd0a4f28419497f9722a3daafe3b4186f6b6457e09190a35050565b60006020828403121561010757600080fd5b81516001600160a01b038116811461011e57600080fd5b9392505050565b608051610ce061015560003960008181610224015281816104830152818161064e015261082c0152610ce06000f3fe608060405234801561001057600080fd5b50600436106101205760003560e01c80635c975abb116100ad5780638da5cb5b116100715780638da5cb5b146102d0578063d4ba8902146102e1578063d64ff640146102f0578063f017c5a614610303578063f2fde38b1461032c57600080fd5b80635c975abb146102715780635e09eea11461027c57806368c18beb1461029d578063715018a6146102c05780638456cb59146102c857600080fd5b806331f0363b116100f457806331f0363b146101bf5780633f4ba83a146101e25780634e281bbb146101ea5780634e8fb4961461021f578063585cd34b1461025e57600080fd5b806263fa27146101255780630f7c5180146101655780630fd7b56a1461017a578063315a095d146101ac575b600080fd5b610150610133366004610b09565b6001600160a01b0316600090815260056020526040902054151590565b60405190151581526020015b60405180910390f35b610178610173366004610b3c565b61033f565b005b61018d610188366004610b6f565b61042b565b6040805160ff909416845260208401929092529082015260600161015c565b6101786101ba366004610b99565b610471565b6101506101cd366004610b99565b60066020526000908152604090205460ff1681565b610178610583565b61020d6101f8366004610b09565b60046020526000908152604090205460ff1681565b60405160ff909116815260200161015c565b6102467f000000000000000000000000000000000000000000000000000000000000000081565b6040516001600160a01b03909116815260200161015c565b61017861026c366004610b09565b610595565b60025460ff16610150565b61028f61028a366004610b09565b610622565b60405190815260200161015c565b6101506102ab366004610b09565b60036020526000908152604090205460ff1681565b6101786106c9565b6101786106db565b6000546001600160a01b0316610246565b61028f670de0b6b3a764000081565b6101786102fe366004610bb2565b6106eb565b61028f610311366004610b09565b6001600160a01b031660009081526005602052604090205490565b61017861033a366004610b09565b610935565b610347610970565b6001600160a01b03821661036e5760405163e6c4247b60e01b815260040160405180910390fd5b60038160ff1611156103bb5760405162461bcd60e51b8152602060048201526011602482015270125b9d985b1a59081cdbdd5c98d9481251607a1b60448201526064015b60405180910390fd5b6001600160a01b0382166000818152600360209081526040808320805460ff199081166001179091556004835292819020805460ff8716941684179055519182527fe4ec676dff761de521994214f01b341c5e447b6722e0ac838360e58c1da83450910160405180910390a25050565b6005602052816000526040600020818154811061044757600080fd5b600091825260209091206003909102018054600182015460029092015460ff909116935090915083565b610479610970565b61048161099d565b7f00000000000000000000000000000000000000000000000000000000000000006001600160a01b031663a9059cbb6104c26000546001600160a01b031690565b6040516001600160e01b031960e084901b1681526001600160a01b039091166004820152602481018490526044016020604051808303816000875af115801561050f573d6000803e3d6000fd5b505050506040513d601f19601f820116820180604052508101906105339190610c4d565b6105775760405162461bcd60e51b8152602060048201526015602482015274151bdad95b881d1c985b9cd9995c8819985a5b1959605a1b60448201526064016103b2565b61058060018055565b50565b61058b610970565b6105936109c7565b565b61059d610970565b6001600160a01b0381166105c45760405163e6c4247b60e01b815260040160405180910390fd5b6001600160a01b0381166000818152600360209081526040808320805460ff1990811690915560049092528083208054909216909155517fdf980d21d8c7bb34800e668dbe003299093bac8e693614151d3c57f73f98a93d9190a250565b6040516370a0823160e01b81526001600160a01b038281166004830152600091670de0b6b3a7640000917f000000000000000000000000000000000000000000000000000000000000000016906370a0823190602401602060405180830381865afa158015610695573d6000803e3d6000fd5b505050506040513d601f19601f820116820180604052508101906106b99190610c6f565b6106c39190610c88565b92915050565b6106d1610970565b6105936000610a19565b6106e3610970565b610593610a69565b6106f361099d565b6106fb610aa6565b3360009081526003602052604090205460ff1661072b5760405163029073fb60e61b815260040160405180910390fd5b6001600160a01b0385166107525760405163e6c4247b60e01b815260040160405180910390fd5b60008381526006602052604090205460ff161561078257604051631611f68760e31b815260040160405180910390fd5b60008381526006602090815260408083208054600160ff1991821681179092556001600160a01b038a811680875260058652848720855160608101875260ff8d8116825242828a019081528289018e81528454808a018655948c5299909a20915160039093029091018054909516911617835595519282019290925592516002909301929092555163a9059cbb60e01b81526004810192909252670de0b6b3a764000060248301527f0000000000000000000000000000000000000000000000000000000000000000169063a9059cbb906044016020604051808303816000875af1158015610875573d6000803e3d6000fd5b505050506040513d601f19601f820116820180604052508101906108999190610c4d565b6108dd5760405162461bcd60e51b8152602060048201526015602482015274151bdad95b881d1c985b9cd9995c8819985a5b1959605a1b60448201526064016103b2565b6040805184815242602082015260ff8616916001600160a01b038816917f0e280a2af9bcfbe35dc6d2c1f9eb6d2ff10b49abe4d9a326261e8cb34f4c47ae910160405180910390a361092e60018055565b5050505050565b61093d610970565b6001600160a01b03811661096757604051631e4fbdf760e01b8152600060048201526024016103b2565b61058081610a19565b6000546001600160a01b031633146105935760405163118cdaa760e01b81523360048201526024016103b2565b6002600154036109c057604051633ee5aeb560e01b815260040160405180910390fd5b6002600155565b6109cf610aca565b6002805460ff191690557f5db9ee0a495bf2e6ff9c91a7834c1ba4fdd244a5e8aa4e537bd38aeae4b073aa335b6040516001600160a01b03909116815260200160405180910390a1565b600080546001600160a01b038381166001600160a01b0319831681178455604051919092169283917f8be0079c531659141344cd1fd0a4f28419497f9722a3daafe3b4186f6b6457e09190a35050565b610a71610aa6565b6002805460ff191660011790557f62e78cea01bee320cd4e420270b5ea74000d11b0c9f74754ebdbfc544b05a2586109fc3390565b60025460ff16156105935760405163d93c066560e01b815260040160405180910390fd5b60025460ff1661059357604051638dfc202b60e01b815260040160405180910390fd5b80356001600160a01b0381168114610b0457600080fd5b919050565b600060208284031215610b1b57600080fd5b610b2482610aed565b9392505050565b803560ff81168114610b0457600080fd5b60008060408385031215610b4f57600080fd5b610b5883610aed565b9150610b6660208401610b2b565b90509250929050565b60008060408385031215610b8257600080fd5b610b8b83610aed565b946020939093013593505050565b600060208284031215610bab57600080fd5b5035919050565b600080600080600060808688031215610bca57600080fd5b610bd386610aed565b9450610be160208701610b2b565b935060408601359250606086013567ffffffffffffffff80821115610c0557600080fd5b818801915088601f830112610c1957600080fd5b813581811115610c2857600080fd5b896020828501011115610c3a57600080fd5b9699959850939650602001949392505050565b600060208284031215610c5f57600080fd5b81518015158114610b2457600080fd5b600060208284031215610c8157600080fd5b5051919050565b600082610ca557634e487b7160e01b600052601260045260246000fd5b50049056fea264697066735822122027d2f1416b4f3917ea6e4d367fbc6192d8e30cd1c37a1360e13e744b7f12261664736f6c63430008140033",
  "devdoc": {
    "errors": {
      "EnforcedPause()": [
        {
          "details": "The operation failed because the contract is paused."
        }
      ],
      "ExpectedPause()": [
        {
          "details": "The operation failed because the contract is not paused."
        }
      ],
      "OwnableInvalidOwner(address)": [
        {
          "details": "The owner is not a valid owner account. (eg. `address(0)`)"
        }
      ],
      "OwnableUnauthorizedAccount(address)": [
        {
          "details": "The caller account is not authorized to perform an operation."
        }
      ],
      "ReentrancyGuardReentrantCall()": [
        {
          "details": "Unauthorized reentrant call."
        }
      ]
    },
    "events": {
      "Paused(address)": {
        "details": "Emitted when the pause is triggered by `account`."
      },
      "Unpaused(address)": {
        "details": "Emitted when the pause is lifted by `account`."
      }
    },
    "kind": "dev",
    "methods": {
      "owner()": {
        "details": "Returns the address of the current owner."
      },
      "paused()": {
        "details": "Returns true if the contract is paused, and false otherwise."
      },
      "renounceOwnership()": {
        "details": "Leaves the contract without owner. It will not be possible to call `onlyOwner` functions. Can only be called by the current owner. NOTE: Renouncing ownership will leave the contract without an owner, thereby disabling any functionality that is only available to the owner."
      },
      "transferOwnership(address)": {
        "details": "Transfers ownership of the contract to a new account (`newOwner`). Can only be called by the current owner."
      }
    },
    "version": 1
  },
  "userdoc": {
    "kind": "user",
    "methods": {},
    "version": 1
  },
  "storageLayout": {
    "storage": [
      {
        "astId": 8,
        "contract": "contracts/core/MainAggregator.sol:MainAggregator",
        "label": "_owner",
        "offset": 0,
        "slot": "0",
        "type": "t_address"
      },
      {
        "astId": 383,
        "contract": "contracts/core/MainAggregator.sol:MainAggregator",
        "label": "_status",
        "offset": 0,
        "slot": "1",
        "type": "t_uint256"
      },
      {
        "astId": 264,
        "contract": "contracts/core/MainAggregator.sol:MainAggregator",
        "label": "_paused",
        "offset": 0,
        "slot": "2",
        "type": "t_bool"
      },
      {
        "astId": 2299,
        "contract": "contracts/core/MainAggregator.sol:MainAggregator",
        "label": "isAdapter",
        "offset": 0,
        "slot": "3",
        "type": "t_mapping(t_address,t_bool)"
      },
      {
        "astId": 2303,
        "contract": "contracts/core/MainAggregator.sol:MainAggregator",
        "label": "adapterToSource",
        "offset": 0,
        "slot": "4",
        "type": "t_mapping(t_address,t_uint8)"
      },
      {
        "astId": 2309,
        "contract": "contracts/core/MainAggregator.sol:MainAggregator",
        "label": "userVerifications",
        "offset": 0,
        "slot": "5",
        "type": "t_mapping(t_address,t_array(t_struct(VerificationData)2325_storage)dyn_storage)"
      },
      {
        "astId": 2313,
        "contract": "contracts/core/MainAggregator.sol:MainAggregator",
        "label": "usedUniqueIds",
        "offset": 0,
        "slot": "6",
        "type": "t_mapping(t_bytes32,t_bool)"
      }
    ],
    "types": {
      "t_address": {
        "encoding": "inplace",
        "label": "address",
        "numberOfBytes": "20"
      },
      "t_array(t_struct(VerificationData)2325_storage)dyn_storage": {
        "base": "t_struct(VerificationData)2325_storage",
        "encoding": "dynamic_array",
        "label": "struct MainAggregator.VerificationData[]",
        "numberOfBytes": "32"
      },
      "t_bool": {
        "encoding": "inplace",
        "label": "bool",
        "numberOfBytes": "1"
      },
      "t_bytes32": {
        "encoding": "inplace",
        "label": "bytes32",
        "numberOfBytes": "32"
      },
      "t_mapping(t_address,t_array(t_struct(VerificationData)2325_storage)dyn_storage)": {
        "encoding": "mapping",
        "key": "t_address",
        "label": "mapping(address => struct MainAggregator.VerificationData[])",
        "numberOfBytes": "32",
        "value": "t_array(t_struct(VerificationData)2325_storage)dyn_storage"
      },
      "t_mapping(t_address,t_bool)": {
        "encoding": "mapping",
        "key": "t_address",
        "label": "mapping(address => bool)",
        "numberOfBytes": "32",
        "value": "t_bool"
      },
      "t_mapping(t_address,t_uint8)": {
        "encoding": "mapping",
        "key": "t_address",
        "label": "mapping(address => uint8)",
        "numberOfBytes": "32",
        "value": "t_uint8"
      },
      "t_mapping(t_bytes32,t_bool)": {
        "encoding": "mapping",
        "key": "t_bytes32",
        "label": "mapping(bytes32 => bool)",
        "numberOfBytes": "32",
        "value": "t_bool"
      },
      "t_struct(VerificationData)2325_storage": {
        "encoding": "inplace",
        "label": "struct MainAggregator.VerificationData",
        "members": [
          {
            "astId": 2320,
            "contract": "contracts/core/MainAggregator.sol:MainAggregator",
            "label": "source",
            "offset": 0,
            "slot": "0",
            "type": "t_uint8"
          },
          {
            "astId": 2322,
            "contract": "contracts/core/MainAggregator.sol:MainAggregator",
            "label": "timestamp",
            "offset": 0,
            "slot": "1",
            "type": "t_uint256"
          },
          {
            "astId": 2324,
            "contract": "contracts/core/MainAggregator.sol:MainAggregator",
            "label": "uniqueId",
            "offset": 0,
            "slot": "2",
            "type": "t_bytes32"
          }
        ],
        "numberOfBytes": "96"
      },
      "t_uint256": {
        "encoding": "inplace",
        "label": "uint256",
        "numberOfBytes": "32"
      },
      "t_uint8": {
        "encoding": "inplace",
        "label": "uint8",
        "numberOfBytes": "1"
      }
    }
  }
}