{
  "address": "0xc2fF5af5C12B7085dC49415Cb81e29B8524E06C0",
  "abi": [
    {
      "inputs": [
        {
          "internalType": "address",
          "name": "_mainAggregator",
          "type": "address"
        },
        {
          "internalType": "address",
          "name": "_backendOracle",
          "type": "address"
        }
      ],
      "stateMutability": "nonpayable",
      "type": "constructor"
    },
    {
      "inputs": [],
      "name": "ECDSAInvalidSignature",
      "type": "error"
    },
    {
      "inputs": [
        {
          "internalType": "uint256",
          "name": "length",
          "type": "uint256"
        }
      ],
      "name": "ECDSAInvalidSignatureLength",
      "type": "error"
    },
    {
      "inputs": [
        {
          "internalType": "bytes32",
          "name": "s",
          "type": "bytes32"
        }
      ],
      "name": "ECDSAInvalidSignatureS",
      "type": "error"
    },
    {
      "inputs": [],
      "name": "InvalidSignature",
      "type": "error"
    },
    {
      "inputs": [],
      "name": "NotRegisteredInPoH",
      "type": "error"
    },
    {
      "inputs": [],
      "name": "ProofAlreadyUsed",
      "type": "error"
    },
    {
      "inputs": [],
      "name": "ProofExpired",
      "type": "error"
    },
    {
      "anonymous": false,
      "inputs": [
        {
          "indexed": true,
          "internalType": "address",
          "name": "user",
          "type": "address"
        },
        {
          "indexed": false,
          "internalType": "bytes32",
          "name": "pohId",
          "type": "bytes32"
        }
      ],
      "name": "PoHVerified",
      "type": "event"
    },
    {
      "inputs": [],
      "name": "PROOF_VALIDITY",
      "outputs": [
        {
          "internalType": "uint256",
          "name": "",
          "type": "uint256"
        }
      ],
      "stateMutability": "view",
      "type": "function"
    },
    {
      "inputs": [],
      "name": "backendOracle",
      "outputs": [
        {
          "internalType": "address",
          "name": "",
          "type": "address"
        }
      ],
      "stateMutability": "view",
      "type": "function"
    },
    {
      "inputs": [],
      "name": "getSourceId",
      "outputs": [
        {
          "internalType": "uint8",
          "name": "",
          "type": "uint8"
        }
      ],
      "stateMutability": "pure",
      "type": "function"
    },
    {
      "inputs": [],
      "name": "mainAggregator",
      "outputs": [
        {
          "internalType": "contract MainAggregator",
          "name": "",
          "type": "address"
        }
      ],
      "stateMutability": "view",
      "type": "function"
    },
    {
      "inputs": [
        {
          "internalType": "bytes32",
          "name": "",
          "type": "bytes32"
        }
      ],
      "name": "usedProofs",
      "outputs": [
        {
          "internalType": "bool",
          "name": "",
          "type": "bool"
        }
      ],
      "stateMutability": "view",
      "type": "function"
    },
    {
      "inputs": [
        {
          "internalType": "address",
          "name": "user",
          "type": "address"
        },
        {
          "internalType": "bytes",
          "name": "proof",
          "type": "bytes"
        }
      ],
      "name": "verifyAndRegister",
      "outputs": [],
      "stateMutability": "nonpayable",
      "type": "function"
    }
  ],
  "transactionHash": "0xf2b5460a1fe1d2513c27b15f617046985c22a26ef1047f12fcd71766110fb979",
  "args": [
    "0x8Cec9277d761f947e29EBeACc4035DDCDB10c2BD",
    "0xFcB998E4c6A0157dEF6AC724Da1279aA6Ac2743D"
  ],
  "numDeployments": 1,
  "solcInputHash": "6c85d4f29a071484964f7b1a6a720704",
  "bytecode": "0x60c060405234801561001057600080fd5b5060405161089138038061089183398101604081905261002f91610062565b6001600160a01b039182166080521660a052610095565b80516001600160a01b038116811461005d57600080fd5b919050565b6000806040838503121561007557600080fd5b61007e83610046565b915061008c60208401610046565b90509250929050565b60805160a0516107cb6100c66000396000818160d40152610240015260008181609501526102c101526107cb6000f3fe608060405234801561001057600080fd5b50600436106100625760003560e01c8063231e721f146100675780634a1bd5bb1461007b57806364b4c9c8146100905780636e6799f1146100cf578063894d0c24146100f6578063c30a0f251461010d575b600080fd5b604051600281526020015b60405180910390f35b61008e610089366004610588565b610140565b005b6100b77f000000000000000000000000000000000000000000000000000000000000000081565b6040516001600160a01b039091168152602001610072565b6100b77f000000000000000000000000000000000000000000000000000000000000000081565b6100ff610e1081565b604051908152602001610072565b61013061011b366004610619565b60006020819052908152604090205460ff1681565b6040519015158152602001610072565b6000808061015084860186610648565b91945092509050610163610e108361070c565b4211156101835760405163b67a771360e01b815260040160405180910390fd5b60008381526020819052604090205460ff16156101b35760405163c9838a6560e01b815260040160405180910390fd5b6040516bffffffffffffffffffffffff19606088901b16602082015260348101849052605481018390526000906074016040516020818303038152906040528051906020012090506000610234827f19457468657265756d205369676e6564204d6573736167653a0a3332000000006000908152601c91909152603c902090565b90506001600160a01b037f00000000000000000000000000000000000000000000000000000000000000001661026a828561037e565b6001600160a01b03161461029157604051638baa579f60e01b815260040160405180910390fd5b60008581526020819052604090819020805460ff19166001179055516303593fd960e61b81526001600160a01b037f0000000000000000000000000000000000000000000000000000000000000000169063d64ff640906102ff908b906002908a908d908d9060040161072d565b600060405180830381600087803b15801561031957600080fd5b505af115801561032d573d6000803e3d6000fd5b50505050876001600160a01b03167f23aa48ccf701ae0c4f53e62acb916ac56da8c566d78fa722f5372ad0c8b25eb88660405161036c91815260200190565b60405180910390a25050505050505050565b60008060008061038e86866103aa565b92509250925061039e82826103f7565b50909150505b92915050565b600080600083516041036103e45760208401516040850151606086015160001a6103d6888285856104b9565b9550955095505050506103f0565b50508151600091506002905b9250925092565b600082600381111561040b5761040b61077f565b03610414575050565b60018260038111156104285761042861077f565b036104465760405163f645eedf60e01b815260040160405180910390fd5b600282600381111561045a5761045a61077f565b036104805760405163fce698f760e01b8152600481018290526024015b60405180910390fd5b60038260038111156104945761049461077f565b036104b5576040516335e2f38360e21b815260048101829052602401610477565b5050565b600080807f7fffffffffffffffffffffffffffffff5d576e7357a4501ddfe92f46681b20a08411156104f4575060009150600390508261057e565b604080516000808252602082018084528a905260ff891692820192909252606081018790526080810186905260019060a0016020604051602081039080840390855afa158015610548573d6000803e3d6000fd5b5050604051601f1901519150506001600160a01b0381166105745750600092506001915082905061057e565b9250600091508190505b9450945094915050565b60008060006040848603121561059d57600080fd5b83356001600160a01b03811681146105b457600080fd5b9250602084013567ffffffffffffffff808211156105d157600080fd5b818601915086601f8301126105e557600080fd5b8135818111156105f457600080fd5b87602082850101111561060657600080fd5b6020830194508093505050509250925092565b60006020828403121561062b57600080fd5b5035919050565b634e487b7160e01b600052604160045260246000fd5b60008060006060848603121561065d57600080fd5b8335925060208401359150604084013567ffffffffffffffff8082111561068357600080fd5b818601915086601f83011261069757600080fd5b8135818111156106a9576106a9610632565b604051601f8201601f19908116603f011681019083821181831017156106d1576106d1610632565b816040528281528960208487010111156106ea57600080fd5b8260208601602083013760006020848301015280955050505050509250925092565b808201808211156103a457634e487b7160e01b600052601160045260246000fd5b6001600160a01b038616815260ff85166020820152604081018490526080606082018190528101829052818360a0830137600081830160a090810191909152601f909201601f19160101949350505050565b634e487b7160e01b600052602160045260246000fdfea26469706673582212203f6dc90cd0d3fd6615c0aafcb7cf4ebbc89a913e1024de4f9b0fc54a422f81d064736f6c63430008140033",
  "devdoc": {
    "details": "Uses oracle-based verification since PoH registry is on Ethereum mainnet Oracle backend checks PoH registry and signs verification proof",
    "errors": {
      "ECDSAInvalidSignature()": [
        {
          "details": "The signature derives the `address(0)`."
        }
      ],
      "ECDSAInvalidSignatureLength(uint256)": [
        {
          "details": "The signature has an invalid length."
        }
      ],
      "ECDSAInvalidSignatureS(bytes32)": [
        {
          "details": "The signature has an S value that is in the upper half order."
        }
      ]
    },
    "kind": "dev",
    "methods": {
      "constructor": {
        "params": {
          "_backendOracle": "Address of trusted backend oracle",
          "_mainAggregator": "Address of MainAggregator contract"
        }
      },
      "verifyAndRegister(address,bytes)": {
        "details": "Proof format: abi.encode(pohId, timestamp, signature) Backend oracle checks PoH registry and signs: keccak256(user, pohId, timestamp)",
        "params": {
          "proof": "Encoded proof: (bytes32 pohId, uint256 timestamp, bytes signature)",
          "user": "Address to verify"
        }
      }
    },
    "title": "PoHAdapter",
    "version": 1
  },
  "userdoc": {
    "kind": "user",
    "methods": {
      "verifyAndRegister(address,bytes)": {
        "notice": "Verify Proof of Humanity status and register user"
      }
    },
    "notice": "Adapter for Proof of Humanity verification",
    "version": 1
  },
  "storageLayout": {
    "storage": [
      {
        "astId": 2808,
        "contract": "contracts/integrations/PoHAdapter.sol:PoHAdapter",
        "label": "usedProofs",
        "offset": 0,
        "slot": "0",
        "type": "t_mapping(t_bytes32,t_bool)"
      }
    ],
    "types": {
      "t_bool": {
        "encoding": "inplace",
        "label": "bool",
        "numberOfBytes": "1"
      },
      "t_bytes32": {
        "encoding": "inplace",
        "label": "bytes32",
        "numberOfBytes": "32"
      },
      "t_mapping(t_bytes32,t_bool)": {
        "encoding": "mapping",
        "key": "t_bytes32",
        "label": "mapping(bytes32 => bool)",
        "numberOfBytes": "32",
        "value": "t_bool"
      }
    }
  }
}