{
  "address": "0x92dc4f0D1d27915E2A0E6C4C597C771299674214",
  "abi": [
    {
      "inputs": [
        {
          "internalType": "address",
          "name": "_worldId",
          "type": "address"
        },
        {
          "internalType": "address",
          "name": "_mainAggregator",
          "type": "address"
        },
        {
          "internalType": "string",
          "name": "_appId",
          "type": "string"
        },
        {
          "internalType": "string",
          "name": "_action",
          "type": "string"
        }
      ],
      "stateMutability": "nonpayable",
      "type": "constructor"
    },
    {
      "inputs": [],
      "name": "DuplicateNullifier",
      "type": "error"
    },
    {
      "inputs": [],
      "name": "InvalidProof",
      "type": "error"
    },
    {
      "anonymous": false,
      "inputs": [
        {
          "indexed": true,
          "internalType": "address",
          "name": "user",
          "type": "address"
        },
        {
          "indexed": false,
          "internalType": "uint256",
          "name": "nullifierHash",
          "type": "uint256"
        }
      ],
      "name": "WorldcoinVerified",
      "type": "event"
    },
    {
      "inputs": [],
      "name": "getSourceId",
      "outputs": [
        {
          "internalType": "uint8",
          "name": "",
          "type": "uint8"
        }
      ],
      "stateMutability": "pure",
      "type": "function"
    },
    {
      "inputs": [],
      "name": "mainAggregator",
      "outputs": [
        {
          "internalType": "contract MainAggregator",
          "name": "",
          "type": "address"
        }
      ],
      "stateMutability": "view",
      "type": "function"
    },
    {
      "inputs": [
        {
          "internalType": "uint256",
          "name": "",
          "type": "uint256"
        }
      ],
      "name": "usedNullifiers",
      "outputs": [
        {
          "internalType": "bool",
          "name": "",
          "type": "bool"
        }
      ],
      "stateMutability": "view",
      "type": "function"
    },
    {
      "inputs": [
        {
          "internalType": "address",
          "name": "user",
          "type": "address"
        },
        {
          "internalType": "bytes",
          "name": "proof",
          "type": "bytes"
        }
      ],
      "name": "verifyAndRegister",
      "outputs": [],
      "stateMutability": "nonpayable",
      "type": "function"
    },
    {
      "inputs": [],
      "name": "worldId",
      "outputs": [
        {
          "internalType": "contract IWorldID",
          "name": "",
          "type": "address"
        }
      ],
      "stateMutability": "view",
      "type": "function"
    }
  ],
  "transactionHash": "0xcf5320214f570680ad76cea0f1a594b797055a349a202bd1767ac9a6278edb9e",
  "args": [
    "0x469449f251692e0779667583026b5a1e99512157",
    "0x8Cec9277d761f947e29EBeACc4035DDCDB10c2BD",
    "app_staging_your_app_id",
    "verify-human"
  ],
  "numDeployments": 1,
  "solcInputHash": "a9ed03014517cbcb5ec8d0d927d0b812",
  "bytecode": "0x610100604052600160e05234801561001657600080fd5b506040516108a13803806108a1833981016040819052610035916101a7565b6001600160a01b03808516608052831660a052604051610088906100769061006190859060200161022c565b60408051601f19818403018152919052610095565b82604051602001610061929190610248565b60c0525061026e92505050565b60006008826040516020016100aa919061022c565b60408051601f198184030181529190528051602090910120901c92915050565b80516001600160a01b03811681146100e157600080fd5b919050565b634e487b7160e01b600052604160045260246000fd5b60005b838110156101175781810151838201526020016100ff565b50506000910152565b600082601f83011261013157600080fd5b81516001600160401b038082111561014b5761014b6100e6565b604051601f8301601f19908116603f01168101908282118183101715610173576101736100e6565b8160405283815286602085880101111561018c57600080fd5b61019d8460208301602089016100fc565b9695505050505050565b600080600080608085870312156101bd57600080fd5b6101c6856100ca565b93506101d4602086016100ca565b60408601519093506001600160401b03808211156101f157600080fd5b6101fd88838901610120565b9350606087015191508082111561021357600080fd5b5061022087828801610120565b91505092959194509250565b6000825161023e8184602087016100fc565b9190910192915050565b828152600082516102608160208501602087016100fc565b919091016020019392505050565b60805160a05160c05160e0516105ee6102b36000396000610198015260006101fa015260008181608a015261029901526000818160c9015261016801526105ee6000f3fe608060405234801561001057600080fd5b50600436106100575760003560e01c8063231e721f1461005c5780634a1bd5bb1461007057806364b4c9c814610085578063753e9ef0146100c4578063aad24061146100eb575b600080fd5b604051600081526020015b60405180910390f35b61008361007e366004610388565b61011e565b005b6100ac7f000000000000000000000000000000000000000000000000000000000000000081565b6040516001600160a01b039091168152602001610067565b6100ac7f000000000000000000000000000000000000000000000000000000000000000081565b61010e6100f9366004610419565b60006020819052908152604090205460ff1681565b6040519015158152602001610067565b6000808061012e84860186610448565b600082815260208190526040902054929550909350915060ff16156101665760405163e1200f1d60e01b815260040160405180910390fd5b7f00000000000000000000000000000000000000000000000000000000000000006001600160a01b0316633bc778e3847f00000000000000000000000000000000000000000000000000000000000000006101f78a6040516020016101e3919060609190911b6bffffffffffffffffffffffff1916815260140190565b604051602081830303815290604052610353565b867f0000000000000000000000000000000000000000000000000000000000000000876040518763ffffffff1660e01b815260040161023b969594939291906104de565b60006040518083038186803b15801561025357600080fd5b505afa158015610267573d6000803e3d6000fd5b505050600083815260208190526040808220805460ff19166001179055516303593fd960e61b81526001600160a01b037f000000000000000000000000000000000000000000000000000000000000000016925063d64ff640916102d6918a919087908b908b90600401610537565b600060405180830381600087803b1580156102f057600080fd5b505af1158015610304573d6000803e3d6000fd5b50505050856001600160a01b03167f2f9cd598d145525235f3866e87de776d878b43435373510e39ae43e611fda3de8360405161034391815260200190565b60405180910390a2505050505050565b60006008826040516020016103689190610589565b60408051601f198184030181529190528051602090910120901c92915050565b60008060006040848603121561039d57600080fd5b83356001600160a01b03811681146103b457600080fd5b9250602084013567ffffffffffffffff808211156103d157600080fd5b818601915086601f8301126103e557600080fd5b8135818111156103f457600080fd5b87602082850101111561040657600080fd5b6020830194508093505050509250925092565b60006020828403121561042b57600080fd5b5035919050565b634e487b7160e01b600052604160045260246000fd5b600080600061014080858703121561045f57600080fd5b84359350602080860135935086605f87011261047a57600080fd5b604051610100810181811067ffffffffffffffff8211171561049e5761049e610432565b6040529186019180888411156104b357600080fd5b604088015b848110156104cf57803582529083019083016104b8565b50508093505050509250925092565b60006101a0820190508782526020878184015286604084015285606084015284608084015260a083018460005b60088110156105285781518352918301919083019060010161050b565b50505050979650505050505050565b6001600160a01b038616815260ff85166020820152604081018490526080606082018190528101829052818360a0830137600081830160a090810191909152601f909201601f19160101949350505050565b6000825160005b818110156105aa5760208186018101518583015201610590565b50600092019182525091905056fea264697066735822122081662c35ece06b37bb7a86d3b7671d2d164b979b10019498cb035afbc83c598564736f6c63430008140033",
  "devdoc": {
    "kind": "dev",
    "methods": {},
    "version": 1
  },
  "userdoc": {
    "kind": "user",
    "methods": {},
    "version": 1
  },
  "storageLayout": {
    "storage": [
      {
        "astId": 2826,
        "contract": "contracts/integrations/WorldcoinAdapter.sol:WorldcoinAdapter",
        "label": "usedNullifiers",
        "offset": 0,
        "slot": "0",
        "type": "t_mapping(t_uint256,t_bool)"
      }
    ],
    "types": {
      "t_bool": {
        "encoding": "inplace",
        "label": "bool",
        "numberOfBytes": "1"
      },
      "t_mapping(t_uint256,t_bool)": {
        "encoding": "mapping",
        "key": "t_uint256",
        "label": "mapping(uint256 => bool)",
        "numberOfBytes": "32",
        "value": "t_bool"
      },
      "t_uint256": {
        "encoding": "inplace",
        "label": "uint256",
        "numberOfBytes": "32"
      }
    }
  }
}